{
  "_format": "hh-sol-artifact-1",
  "contractName": "Web3Jobs",
  "sourceName": "contracts/Web3Jobs.sol",
  "abi": [
    {
      "inputs": [],
      "stateMutability": "nonpayable",
      "type": "constructor"
    },
    {
      "anonymous": false,
      "inputs": [
        {
          "indexed": true,
          "internalType": "bytes32",
          "name": "jobId",
          "type": "bytes32"
        },
        {
          "indexed": true,
          "internalType": "address",
          "name": "applicant",
          "type": "address"
        },
        {
          "indexed": true,
          "internalType": "uint256",
          "name": "amount",
          "type": "uint256"
        },
        {
          "indexed": false,
          "internalType": "bool",
          "name": "isEther",
          "type": "bool"
        }
      ],
      "name": "BountyClaimed",
      "type": "event"
    },
    {
      "anonymous": false,
      "inputs": [
        {
          "indexed": true,
          "internalType": "bytes32",
          "name": "jobId",
          "type": "bytes32"
        },
        {
          "indexed": true,
          "internalType": "address",
          "name": "employer",
          "type": "address"
        },
        {
          "indexed": true,
          "internalType": "uint256",
          "name": "bountyAmount",
          "type": "uint256"
        }
      ],
      "name": "JobPublished",
      "type": "event"
    },
    {
      "anonymous": false,
      "inputs": [
        {
          "indexed": true,
          "internalType": "bytes32",
          "name": "jobId",
          "type": "bytes32"
        },
        {
          "indexed": true,
          "internalType": "address",
          "name": "employer",
          "type": "address"
        }
      ],
      "name": "JobUnpublished",
      "type": "event"
    },
    {
      "inputs": [
        {
          "internalType": "address",
          "name": "",
          "type": "address"
        },
        {
          "internalType": "bytes32",
          "name": "",
          "type": "bytes32"
        }
      ],
      "name": "AlreadyClaimed",
      "outputs": [
        {
          "internalType": "bool",
          "name": "",
          "type": "bool"
        }
      ],
      "stateMutability": "view",
      "type": "function"
    },
    {
      "inputs": [
        {
          "internalType": "address",
          "name": "",
          "type": "address"
        },
        {
          "internalType": "bytes32",
          "name": "",
          "type": "bytes32"
        },
        {
          "internalType": "uint256",
          "name": "",
          "type": "uint256"
        }
      ],
      "name": "Applicants",
      "outputs": [
        {
          "internalType": "enum Web3Jobs.Stage",
          "name": "",
          "type": "uint8"
        }
      ],
      "stateMutability": "view",
      "type": "function"
    },
    {
      "inputs": [
        {
          "internalType": "address",
          "name": "",
          "type": "address"
        },
        {
          "internalType": "contract IERC20",
          "name": "",
          "type": "address"
        }
      ],
      "name": "ERC20BountyBalances",
      "outputs": [
        {
          "internalType": "uint256",
          "name": "",
          "type": "uint256"
        }
      ],
      "stateMutability": "view",
      "type": "function"
    },
    {
      "inputs": [
        {
          "internalType": "address",
          "name": "",
          "type": "address"
        },
        {
          "internalType": "uint256",
          "name": "",
          "type": "uint256"
        }
      ],
      "name": "Employers",
      "outputs": [
        {
          "internalType": "bytes32",
          "name": "",
          "type": "bytes32"
        }
      ],
      "stateMutability": "view",
      "type": "function"
    },
    {
      "inputs": [],
      "name": "EmployersLength",
      "outputs": [
        {
          "internalType": "uint256",
          "name": "",
          "type": "uint256"
        }
      ],
      "stateMutability": "view",
      "type": "function"
    },
    {
      "inputs": [
        {
          "internalType": "bytes32",
          "name": "",
          "type": "bytes32"
        }
      ],
      "name": "Hired",
      "outputs": [
        {
          "internalType": "uint256",
          "name": "",
          "type": "uint256"
        }
      ],
      "stateMutability": "view",
      "type": "function"
    },
    {
      "inputs": [
        {
          "internalType": "uint256",
          "name": "",
          "type": "uint256"
        }
      ],
      "name": "JobIds",
      "outputs": [
        {
          "internalType": "bytes32",
          "name": "",
          "type": "bytes32"
        }
      ],
      "stateMutability": "view",
      "type": "function"
    },
    {
      "inputs": [],
      "name": "JobIdsLength",
      "outputs": [
        {
          "internalType": "uint256",
          "name": "",
          "type": "uint256"
        }
      ],
      "stateMutability": "view",
      "type": "function"
    },
    {
      "inputs": [
        {
          "internalType": "bytes32",
          "name": "",
          "type": "bytes32"
        }
      ],
      "name": "Jobs",
      "outputs": [
        {
          "internalType": "bytes32",
          "name": "jobId",
          "type": "bytes32"
        },
        {
          "internalType": "address",
          "name": "employer",
          "type": "address"
        },
        {
          "components": [
            {
              "internalType": "contract IERC20",
              "name": "token",
              "type": "address"
            },
            {
              "internalType": "uint256",
              "name": "amount",
              "type": "uint256"
            }
          ],
          "internalType": "struct Web3Jobs.Bounty",
          "name": "bounty",
          "type": "tuple"
        },
        {
          "internalType": "bool",
          "name": "status",
          "type": "bool"
        }
      ],
      "stateMutability": "view",
      "type": "function"
    },
    {
      "inputs": [
        {
          "internalType": "address",
          "name": "",
          "type": "address"
        },
        {
          "internalType": "uint256",
          "name": "",
          "type": "uint256"
        }
      ],
      "name": "MyApplications",
      "outputs": [
        {
          "internalType": "bytes32",
          "name": "",
          "type": "bytes32"
        }
      ],
      "stateMutability": "view",
      "type": "function"
    },
    {
      "inputs": [],
      "name": "MyApplicationsLength",
      "outputs": [
        {
          "internalType": "uint256",
          "name": "",
          "type": "uint256"
        }
      ],
      "stateMutability": "view",
      "type": "function"
    },
    {
      "inputs": [
        {
          "internalType": "address",
          "name": "applicant",
          "type": "address"
        },
        {
          "internalType": "bytes32",
          "name": "jobId",
          "type": "bytes32"
        }
      ],
      "name": "canClaimBounty",
      "outputs": [
        {
          "internalType": "bool",
          "name": "",
          "type": "bool"
        }
      ],
      "stateMutability": "view",
      "type": "function"
    },
    {
      "inputs": [
        {
          "internalType": "address",
          "name": "applicant",
          "type": "address"
        },
        {
          "internalType": "bytes32",
          "name": "jobId",
          "type": "bytes32"
        },
        {
          "internalType": "uint8",
          "name": "status",
          "type": "uint8"
        }
      ],
      "name": "changeApplicationStatus",
      "outputs": [],
      "stateMutability": "nonpayable",
      "type": "function"
    },
    {
      "inputs": [
        {
          "internalType": "bytes32",
          "name": "jobId",
          "type": "bytes32"
        }
      ],
      "name": "claimBounty",
      "outputs": [],
      "stateMutability": "nonpayable",
      "type": "function"
    },
    {
      "inputs": [
        {
          "internalType": "bytes32",
          "name": "jobId",
          "type": "bytes32"
        }
      ],
      "name": "closeJobOffer",
      "outputs": [],
      "stateMutability": "nonpayable",
      "type": "function"
    },
    {
      "inputs": [],
      "name": "getAaveBalance",
      "outputs": [
        {
          "internalType": "uint256",
          "name": "",
          "type": "uint256"
        }
      ],
      "stateMutability": "view",
      "type": "function"
    },
    {
      "inputs": [
        {
          "internalType": "bytes32",
          "name": "jobId",
          "type": "bytes32"
        }
      ],
      "name": "getMyApplicants",
      "outputs": [
        {
          "internalType": "address[]",
          "name": "",
          "type": "address[]"
        }
      ],
      "stateMutability": "view",
      "type": "function"
    },
    {
      "inputs": [
        {
          "internalType": "address",
          "name": "applicant",
          "type": "address"
        }
      ],
      "name": "getMyApplications",
      "outputs": [
        {
          "internalType": "bytes32[]",
          "name": "",
          "type": "bytes32[]"
        }
      ],
      "stateMutability": "view",
      "type": "function"
    },
    {
      "inputs": [
        {
          "internalType": "address",
          "name": "employer",
          "type": "address"
        }
      ],
      "name": "getMyJobs",
      "outputs": [
        {
          "internalType": "bytes32[]",
          "name": "",
          "type": "bytes32[]"
        }
      ],
      "stateMutability": "view",
      "type": "function"
    },
    {
      "inputs": [
        {
          "internalType": "string",
          "name": "a",
          "type": "string"
        },
        {
          "internalType": "string",
          "name": "b",
          "type": "string"
        }
      ],
      "name": "isEqualStrings",
      "outputs": [
        {
          "internalType": "bool",
          "name": "",
          "type": "bool"
        }
      ],
      "stateMutability": "pure",
      "type": "function"
    },
    {
      "inputs": [
        {
          "internalType": "bytes32",
          "name": "jobId",
          "type": "bytes32"
        }
      ],
      "name": "newApplication",
      "outputs": [],
      "stateMutability": "nonpayable",
      "type": "function"
    },
    {
      "inputs": [
        {
          "internalType": "bytes32",
          "name": "jobId",
          "type": "bytes32"
        },
        {
          "internalType": "uint256",
          "name": "bountyAmount",
          "type": "uint256"
        },
        {
          "internalType": "contract IERC20",
          "name": "token",
          "type": "address"
        }
      ],
      "name": "publishJob",
      "outputs": [],
      "stateMutability": "payable",
      "type": "function"
    },
    {
      "inputs": [
        {
          "internalType": "bytes32",
          "name": "jobId",
          "type": "bytes32"
        }
      ],
      "name": "unpublishJob",
      "outputs": [],
      "stateMutability": "nonpayable",
      "type": "function"
    }
  ],
  "bytecode": "0x608060405234801561001057600080fd5b50613818806100206000396000f3fe6080604052600436106101405760003560e01c80639f3769be116100b6578063d0e517fe1161006f578063d0e517fe14610499578063deef28ca146104d6578063e4c07c17146104ff578063e79f6a471461053c578063eca046bd14610579578063f7acd12d146105b957610140565b80639f3769be14610367578063a5fe38ca14610390578063bba5aeb0146103b9578063be557212146103f6578063c078b4a214610433578063cbc056911461047057610140565b8063307d153411610108578063307d1534146102315780634ed648a31461025c5780636237f686146102995780637ef93b61146102c45780638bc71c0e146102ed57806394335e6b1461032a57610140565b80630581c2e11461014557806307844822146101615780630c1067b01461018c578063112a227b146101c9578063230fd8d614610206575b600080fd5b61015f600480360381019061015a9190612660565b6105f6565b005b34801561016d57600080fd5b50610176610a90565b60405161018391906126c2565b60405180910390f35b34801561019857600080fd5b506101b360048036038101906101ae9190612709565b610a96565b6040516101c091906127f4565b60405180910390f35b3480156101d557600080fd5b506101f060048036038101906101eb9190612816565b610b2d565b6040516101fd9190612871565b60405180910390f35b34801561021257600080fd5b5061021b610b5c565b60405161022891906126c2565b60405180910390f35b34801561023d57600080fd5b50610246610b62565b60405161025391906126c2565b60405180910390f35b34801561026857600080fd5b50610283600480360381019061027e91906129d2565b610b68565b6040516102909190612871565b60405180910390f35b3480156102a557600080fd5b506102ae610bc1565b6040516102bb91906126c2565b60405180910390f35b3480156102d057600080fd5b506102eb60048036038101906102e69190612a4a565b610bc6565b005b3480156102f957600080fd5b50610314600480360381019061030f9190612a77565b610c9c565b6040516103219190612b41565b60405180910390f35b34801561033657600080fd5b50610351600480360381019061034c9190612b5c565b610ce2565b60405161035e9190612bab565b60405180910390f35b34801561037357600080fd5b5061038e60048036038101906103899190612a4a565b610d13565b005b34801561039c57600080fd5b506103b760048036038101906103b29190612a4a565b6112ff565b005b3480156103c557600080fd5b506103e060048036038101906103db9190612b5c565b61151c565b6040516103ed9190612bab565b60405180910390f35b34801561040257600080fd5b5061041d60048036038101906104189190612a4a565b61154d565b60405161042a91906126c2565b60405180910390f35b34801561043f57600080fd5b5061045a60048036038101906104559190612709565b611565565b60405161046791906127f4565b60405180910390f35b34801561047c57600080fd5b5061049760048036038101906104929190612a4a565b6115fc565b005b3480156104a557600080fd5b506104c060048036038101906104bb9190612816565b611a31565b6040516104cd9190612871565b60405180910390f35b3480156104e257600080fd5b506104fd60048036038101906104f89190612bff565b611c16565b005b34801561050b57600080fd5b5061052660048036038101906105219190612c52565b611eaa565b6040516105339190612bab565b60405180910390f35b34801561054857600080fd5b50610563600480360381019061055e9190612c7f565b611ece565b60405161057091906126c2565b60405180910390f35b34801561058557600080fd5b506105a0600480360381019061059b9190612a4a565b611ef3565b6040516105b09493929190612d6b565b60405180910390f35b3480156105c557600080fd5b506105e060048036038101906105db9190612a4a565b611fba565b6040516105ed9190612e6e565b60405180910390f35b60008034146106825760008314801561063b5750600073ffffffffffffffffffffffffffffffffffffffff168273ffffffffffffffffffffffffffffffffffffffff16145b61067a576040517f08c379a000000000000000000000000000000000000000000000000000000000815260040161067190612f13565b60405180910390fd5b349050610855565b600083141580156106c05750600073ffffffffffffffffffffffffffffffffffffffff168273ffffffffffffffffffffffffffffffffffffffff1614155b6106ff576040517f08c379a00000000000000000000000000000000000000000000000000000000081526004016106f690612fa5565b60405180910390fd5b8290508173ffffffffffffffffffffffffffffffffffffffff166323b872dd3330866040518463ffffffff1660e01b815260040161073f93929190612fc5565b6020604051808303816000875af115801561075e573d6000803e3d6000fd5b505050506040513d601f19601f820116820180604052508101906107829190613028565b6107c1576040517f08c379a00000000000000000000000000000000000000000000000000000000081526004016107b8906130c7565b60405180910390fd5b82600a60003373ffffffffffffffffffffffffffffffffffffffff1673ffffffffffffffffffffffffffffffffffffffff16815260200190815260200160002060008473ffffffffffffffffffffffffffffffffffffffff1673ffffffffffffffffffffffffffffffffffffffff168152602001908152602001600020600082825461084d9190613116565b925050819055505b600084908060018154018082558091505060019003906000526020600020016000909190919091505560018060008282546108909190613116565b925050819055506060600060405180604001604052808573ffffffffffffffffffffffffffffffffffffffff1681526020018481525090506040518060a001604052808781526020013373ffffffffffffffffffffffffffffffffffffffff16815260200183815260200182815260200160011515815250600260008881526020019081526020016000206000820151816000015560208201518160010160006101000a81548173ffffffffffffffffffffffffffffffffffffffff021916908373ffffffffffffffffffffffffffffffffffffffff16021790555060408201518160020190805190602001906109889291906123dd565b5060608201518160030160008201518160000160006101000a81548173ffffffffffffffffffffffffffffffffffffffff021916908373ffffffffffffffffffffffffffffffffffffffff16021790555060208201518160010155505060808201518160050160006101000a81548160ff021916908315150217905550905050600860003373ffffffffffffffffffffffffffffffffffffffff1673ffffffffffffffffffffffffffffffffffffffff168152602001908152602001600020869080600181540180825580915050600190039060005260206000200160009091909190915055600160096000828254610a819190613116565b92505081905550505050505050565b60015481565b6060600660008373ffffffffffffffffffffffffffffffffffffffff1673ffffffffffffffffffffffffffffffffffffffff168152602001908152602001600020805480602002602001604051908101604052809291908181526020018280548015610b2157602002820191906000526020600020905b815481526020019060010190808311610b0d575b50505050509050919050565b60056020528160005260406000206020528060005260406000206000915091509054906101000a900460ff1681565b60075481565b60095481565b600081604051602001610b7b91906131e6565b6040516020818303038152906040528051906020012083604051602001610ba291906131e6565b6040516020818303038152906040528051906020012014905092915050565b600090565b3373ffffffffffffffffffffffffffffffffffffffff166002600083815260200190815260200160002060010160009054906101000a900473ffffffffffffffffffffffffffffffffffffffff1673ffffffffffffffffffffffffffffffffffffffff1614610c6a576040517f08c379a0000000000000000000000000000000000000000000000000000000008152600401610c619061326f565b60405180910390fd5b60006002600083815260200190815260200160002060050160006101000a81548160ff02191690831515021790555050565b60046020528260005260406000206020528160005260406000208160028110610cc457600080fd5b6020918282040191900692509250509054906101000a900460ff1681565b60086020528160005260406000208181548110610cfe57600080fd5b90600052602060002001600091509150505481565b600580811115610d2657610d25612aca565b5b600460003373ffffffffffffffffffffffffffffffffffffffff1673ffffffffffffffffffffffffffffffffffffffff1681526020019081526020016000206000838152602001908152602001600020600060028110610d8957610d8861328f565b5b602091828204019190069054906101000a900460ff166005811115610db157610db0612aca565b5b148015610e5a575060036005811115610dcd57610dcc612aca565b5b600460003373ffffffffffffffffffffffffffffffffffffffff1673ffffffffffffffffffffffffffffffffffffffff1681526020019081526020016000206000838152602001908152602001600020600160028110610e3057610e2f61328f565b5b602091828204019190069054906101000a900460ff166005811115610e5857610e57612aca565b5b145b8015610e8757506002600082815260200190815260200160002060050160009054906101000a900460ff16155b610ec6576040517f08c379a0000000000000000000000000000000000000000000000000000000008152600401610ebd9061330a565b60405180910390fd5b600560003373ffffffffffffffffffffffffffffffffffffffff1673ffffffffffffffffffffffffffffffffffffffff168152602001908152602001600020600082815260200190815260200160002060009054906101000a900460ff1615610f64576040517f08c379a0000000000000000000000000000000000000000000000000000000008152600401610f5b90613376565b60405180910390fd5b600080600260008481526020019081526020016000206003016040518060400160405290816000820160009054906101000a900473ffffffffffffffffffffffffffffffffffffffff1673ffffffffffffffffffffffffffffffffffffffff1673ffffffffffffffffffffffffffffffffffffffff16815260200160018201548152505090506000610ff58461205e565b9050600081836020015161100991906133c5565b9050600073ffffffffffffffffffffffffffffffffffffffff16836000015173ffffffffffffffffffffffffffffffffffffffff1614156110fa5760003373ffffffffffffffffffffffffffffffffffffffff168260405161106a90613427565b60006040518083038185875af1925050503d80600081146110a7576040519150601f19603f3d011682016040523d82523d6000602084013e6110ac565b606091505b50509050806110f0576040517f08c379a00000000000000000000000000000000000000000000000000000000081526004016110e7906134ae565b60405180910390fd5b600194505061128f565b60006002600087815260200190815260200160002060010160009054906101000a900473ffffffffffffffffffffffffffffffffffffffff16905081600a60008373ffffffffffffffffffffffffffffffffffffffff1673ffffffffffffffffffffffffffffffffffffffff1681526020019081526020016000206000866000015173ffffffffffffffffffffffffffffffffffffffff1673ffffffffffffffffffffffffffffffffffffffff16815260200190815260200160002060008282546111c591906134ce565b92505081905550836000015173ffffffffffffffffffffffffffffffffffffffff1663a9059cbb33846040518363ffffffff1660e01b815260040161120b929190613502565b6020604051808303816000875af115801561122a573d6000803e3d6000fd5b505050506040513d601f19601f8201168201806040525081019061124e9190613028565b61128d576040517f08c379a00000000000000000000000000000000000000000000000000000000081526004016112849061359d565b60405180910390fd5b505b6001600560003373ffffffffffffffffffffffffffffffffffffffff1673ffffffffffffffffffffffffffffffffffffffff168152602001908152602001600020600087815260200190815260200160002060006101000a81548160ff0219169083151502179055505050505050565b611308816122b9565b15801561133557506002600082815260200190815260200160002060050160009054906101000a900460ff165b611374576040517f08c379a000000000000000000000000000000000000000000000000000000000815260040161136b90613655565b60405180910390fd5b60026000828152602001908152602001600020600201339080600181540180825580915050600190039060005260206000200160009091909190916101000a81548173ffffffffffffffffffffffffffffffffffffffff021916908373ffffffffffffffffffffffffffffffffffffffff1602179055506113f3612467565b6000816000600281106114095761140861328f565b5b602002019060058111156114205761141f612aca565b5b9081600581111561143457611433612aca565b5b8152505080600460003373ffffffffffffffffffffffffffffffffffffffff1673ffffffffffffffffffffffffffffffffffffffff1681526020019081526020016000206000848152602001908152602001600020906002611497929190612489565b50600660003373ffffffffffffffffffffffffffffffffffffffff1673ffffffffffffffffffffffffffffffffffffffff1681526020019081526020016000208290806001815401808255809150506001900390600052602060002001600090919091909150556001600760008282546115119190613116565b925050819055505050565b6006602052816000526040600020818154811061153857600080fd5b90600052602060002001600091509150505481565b60036020528060005260406000206000915090505481565b6060600860008373ffffffffffffffffffffffffffffffffffffffff1673ffffffffffffffffffffffffffffffffffffffff1681526020019081526020016000208054806020026020016040519081016040528092919081815260200182805480156115f057602002820191906000526020600020905b8154815260200190600101908083116115dc575b50505050509050919050565b3373ffffffffffffffffffffffffffffffffffffffff166002600083815260200190815260200160002060010160009054906101000a900473ffffffffffffffffffffffffffffffffffffffff1673ffffffffffffffffffffffffffffffffffffffff16146116a0576040517f08c379a00000000000000000000000000000000000000000000000000000000081526004016116979061326f565b60405180910390fd5b6000600260008381526020019081526020016000206003016040518060400160405290816000820160009054906101000a900473ffffffffffffffffffffffffffffffffffffffff1673ffffffffffffffffffffffffffffffffffffffff1673ffffffffffffffffffffffffffffffffffffffff1681526020016001820154815250509050600073ffffffffffffffffffffffffffffffffffffffff16816000015173ffffffffffffffffffffffffffffffffffffffff1614156118145760003373ffffffffffffffffffffffffffffffffffffffff16826020015160405161178890613427565b60006040518083038185875af1925050503d80600081146117c5576040519150601f19603f3d011682016040523d82523d6000602084013e6117ca565b606091505b505090508061180e576040517f08c379a0000000000000000000000000000000000000000000000000000000008152600401611805906136e7565b60405180910390fd5b50611975565b8060200151600a60003373ffffffffffffffffffffffffffffffffffffffff1673ffffffffffffffffffffffffffffffffffffffff1681526020019081526020016000206000836000015173ffffffffffffffffffffffffffffffffffffffff1673ffffffffffffffffffffffffffffffffffffffff16815260200190815260200160002060008282546118a891906134ce565b92505081905550806000015173ffffffffffffffffffffffffffffffffffffffff1663a9059cbb3383602001516040518363ffffffff1660e01b81526004016118f2929190613502565b6020604051808303816000875af1158015611911573d6000803e3d6000fd5b505050506040513d601f19601f820116820180604052508101906119359190613028565b611974576040517f08c379a000000000000000000000000000000000000000000000000000000000815260040161196b90613779565b60405180910390fd5b5b600180600082825461198791906134ce565b92505081905550600260008381526020019081526020016000206000808201600090556001820160006101000a81549073ffffffffffffffffffffffffffffffffffffffff02191690556002820160006119e19190612532565b60038201600080820160006101000a81549073ffffffffffffffffffffffffffffffffffffffff0219169055600182016000905550506005820160006101000a81549060ff021916905550505050565b6000600580811115611a4657611a45612aca565b5b600460008573ffffffffffffffffffffffffffffffffffffffff1673ffffffffffffffffffffffffffffffffffffffff1681526020019081526020016000206000848152602001908152602001600020600060028110611aa957611aa861328f565b5b602091828204019190069054906101000a900460ff166005811115611ad157611ad0612aca565b5b148015611b7a575060036005811115611aed57611aec612aca565b5b600460008573ffffffffffffffffffffffffffffffffffffffff1673ffffffffffffffffffffffffffffffffffffffff1681526020019081526020016000206000848152602001908152602001600020600160028110611b5057611b4f61328f565b5b602091828204019190069054906101000a900460ff166005811115611b7857611b77612aca565b5b145b8015611ba757506002600083815260200190815260200160002060050160009054906101000a900460ff16155b8015611c0e5750600560008473ffffffffffffffffffffffffffffffffffffffff1673ffffffffffffffffffffffffffffffffffffffff168152602001908152602001600020600083815260200190815260200160002060009054906101000a900460ff16155b905092915050565b3373ffffffffffffffffffffffffffffffffffffffff166002600084815260200190815260200160002060010160009054906101000a900473ffffffffffffffffffffffffffffffffffffffff1673ffffffffffffffffffffffffffffffffffffffff1614611cba576040517f08c379a0000000000000000000000000000000000000000000000000000000008152600401611cb19061326f565b60405180910390fd5b600460008473ffffffffffffffffffffffffffffffffffffffff1673ffffffffffffffffffffffffffffffffffffffff1681526020019081526020016000206000838152602001908152602001600020600060028110611d1d57611d1c61328f565b5b602091828204019190069054906101000a900460ff16600460008573ffffffffffffffffffffffffffffffffffffffff1673ffffffffffffffffffffffffffffffffffffffff1681526020019081526020016000206000848152602001908152602001600020600160028110611d9657611d9561328f565b5b602091828204019190066101000a81548160ff02191690836005811115611dc057611dbf612aca565b5b02179055508060ff166005811115611ddb57611dda612aca565b5b600460008573ffffffffffffffffffffffffffffffffffffffff1673ffffffffffffffffffffffffffffffffffffffff1681526020019081526020016000206000848152602001908152602001600020600060028110611e3e57611e3d61328f565b5b602091828204019190066101000a81548160ff02191690836005811115611e6857611e67612aca565b5b021790555060048160ff161415611ea5576001600360008481526020019081526020016000206000828254611e9d9190613116565b925050819055505b505050565b60008181548110611eba57600080fd5b906000526020600020016000915090505481565b600a602052816000526040600020602052806000526040600020600091509150505481565b60026020528060005260406000206000915090508060000154908060010160009054906101000a900473ffffffffffffffffffffffffffffffffffffffff1690806003016040518060400160405290816000820160009054906101000a900473ffffffffffffffffffffffffffffffffffffffff1673ffffffffffffffffffffffffffffffffffffffff1673ffffffffffffffffffffffffffffffffffffffff168152602001600182015481525050908060050160009054906101000a900460ff16905084565b60606002600083815260200190815260200160002060020180548060200260200160405190810160405280929190818152602001828054801561205257602002820191906000526020600020905b8160009054906101000a900473ffffffffffffffffffffffffffffffffffffffff1673ffffffffffffffffffffffffffffffffffffffff1681526020019060010190808311612008575b50505050509050919050565b600080600260008481526020019081526020016000206002018054806020026020016040519081016040528092919081815260200182805480156120f757602002820191906000526020600020905b8160009054906101000a900473ffffffffffffffffffffffffffffffffffffffff1673ffffffffffffffffffffffffffffffffffffffff16815260200190600101908083116120ad575b505050505090506000805b82518110156122ae5760058081111561211e5761211d612aca565b5b600460008584815181106121355761213461328f565b5b602002602001015173ffffffffffffffffffffffffffffffffffffffff1673ffffffffffffffffffffffffffffffffffffffff168152602001908152602001600020600087815260200190815260200160002060006002811061219b5761219a61328f565b5b602091828204019190069054906101000a900460ff1660058111156121c3576121c2612aca565b5b1480156122865750600360058111156121df576121de612aca565b5b600460008584815181106121f6576121f561328f565b5b602002602001015173ffffffffffffffffffffffffffffffffffffffff1673ffffffffffffffffffffffffffffffffffffffff168152602001908152602001600020600087815260200190815260200160002060016002811061225c5761225b61328f565b5b602091828204019190069054906101000a900460ff16600581111561228457612283612aca565b5b145b1561229b576001826122989190613116565b91505b80806122a690613799565b915050612102565b508092505050919050565b6000806002600084815260200190815260200160002060020180548060200260200160405190810160405280929190818152602001828054801561235257602002820191906000526020600020905b8160009054906101000a900473ffffffffffffffffffffffffffffffffffffffff1673ffffffffffffffffffffffffffffffffffffffff1681526020019060010190808311612308575b5050505050905060005b81518110156123d1573373ffffffffffffffffffffffffffffffffffffffff1682828151811061238f5761238e61328f565b5b602002602001015173ffffffffffffffffffffffffffffffffffffffff1614156123be576001925050506123d8565b80806123c990613799565b91505061235c565b5060009150505b919050565b828054828255906000526020600020908101928215612456579160200282015b828111156124555782518260006101000a81548173ffffffffffffffffffffffffffffffffffffffff021916908373ffffffffffffffffffffffffffffffffffffffff160217905550916020019190600101906123fd565b5b5090506124639190612553565b5090565b6040518060400160405280600290602082028036833780820191505090505090565b826002601f016020900481019282156125215791602002820160005b838211156124f257835183826101000a81548160ff021916908360058111156124d1576124d0612aca565b5b021790555092602001926001016020816000010492830192600103026124a5565b801561251f5782816101000a81549060ff02191690556001016020816000010492830192600103026124f2565b505b50905061252e9190612553565b5090565b50805460008255906000526020600020908101906125509190612553565b50565b5b8082111561256c576000816000905550600101612554565b5090565b6000604051905090565b600080fd5b600080fd5b6000819050919050565b61259781612584565b81146125a257600080fd5b50565b6000813590506125b48161258e565b92915050565b6000819050919050565b6125cd816125ba565b81146125d857600080fd5b50565b6000813590506125ea816125c4565b92915050565b600073ffffffffffffffffffffffffffffffffffffffff82169050919050565b600061261b826125f0565b9050919050565b600061262d82612610565b9050919050565b61263d81612622565b811461264857600080fd5b50565b60008135905061265a81612634565b92915050565b6000806000606084860312156126795761267861257a565b5b6000612687868287016125a5565b9350506020612698868287016125db565b92505060406126a98682870161264b565b9150509250925092565b6126bc816125ba565b82525050565b60006020820190506126d760008301846126b3565b92915050565b6126e681612610565b81146126f157600080fd5b50565b600081359050612703816126dd565b92915050565b60006020828403121561271f5761271e61257a565b5b600061272d848285016126f4565b91505092915050565b600081519050919050565b600082825260208201905092915050565b6000819050602082019050919050565b61276b81612584565b82525050565b600061277d8383612762565b60208301905092915050565b6000602082019050919050565b60006127a182612736565b6127ab8185612741565b93506127b683612752565b8060005b838110156127e75781516127ce8882612771565b97506127d983612789565b9250506001810190506127ba565b5085935050505092915050565b6000602082019050818103600083015261280e8184612796565b905092915050565b6000806040838503121561282d5761282c61257a565b5b600061283b858286016126f4565b925050602061284c858286016125a5565b9150509250929050565b60008115159050919050565b61286b81612856565b82525050565b60006020820190506128866000830184612862565b92915050565b600080fd5b600080fd5b6000601f19601f8301169050919050565b7f4e487b7100000000000000000000000000000000000000000000000000000000600052604160045260246000fd5b6128df82612896565b810181811067ffffffffffffffff821117156128fe576128fd6128a7565b5b80604052505050565b6000612911612570565b905061291d82826128d6565b919050565b600067ffffffffffffffff82111561293d5761293c6128a7565b5b61294682612896565b9050602081019050919050565b82818337600083830152505050565b600061297561297084612922565b612907565b90508281526020810184848401111561299157612990612891565b5b61299c848285612953565b509392505050565b600082601f8301126129b9576129b861288c565b5b81356129c9848260208601612962565b91505092915050565b600080604083850312156129e9576129e861257a565b5b600083013567ffffffffffffffff811115612a0757612a0661257f565b5b612a13858286016129a4565b925050602083013567ffffffffffffffff811115612a3457612a3361257f565b5b612a40858286016129a4565b9150509250929050565b600060208284031215612a6057612a5f61257a565b5b6000612a6e848285016125a5565b91505092915050565b600080600060608486031215612a9057612a8f61257a565b5b6000612a9e868287016126f4565b9350506020612aaf868287016125a5565b9250506040612ac0868287016125db565b9150509250925092565b7f4e487b7100000000000000000000000000000000000000000000000000000000600052602160045260246000fd5b60068110612b0a57612b09612aca565b5b50565b6000819050612b1b82612af9565b919050565b6000612b2b82612b0d565b9050919050565b612b3b81612b20565b82525050565b6000602082019050612b566000830184612b32565b92915050565b60008060408385031215612b7357612b7261257a565b5b6000612b81858286016126f4565b9250506020612b92858286016125db565b9150509250929050565b612ba581612584565b82525050565b6000602082019050612bc06000830184612b9c565b92915050565b600060ff82169050919050565b612bdc81612bc6565b8114612be757600080fd5b50565b600081359050612bf981612bd3565b92915050565b600080600060608486031215612c1857612c1761257a565b5b6000612c26868287016126f4565b9350506020612c37868287016125a5565b9250506040612c4886828701612bea565b9150509250925092565b600060208284031215612c6857612c6761257a565b5b6000612c76848285016125db565b91505092915050565b60008060408385031215612c9657612c9561257a565b5b6000612ca4858286016126f4565b9250506020612cb58582860161264b565b9150509250929050565b612cc881612610565b82525050565b6000819050919050565b6000612cf3612cee612ce9846125f0565b612cce565b6125f0565b9050919050565b6000612d0582612cd8565b9050919050565b6000612d1782612cfa565b9050919050565b612d2781612d0c565b82525050565b612d36816125ba565b82525050565b604082016000820151612d526000850182612d1e565b506020820151612d656020850182612d2d565b50505050565b600060a082019050612d806000830187612b9c565b612d8d6020830186612cbf565b612d9a6040830185612d3c565b612da76080830184612862565b95945050505050565b600081519050919050565b600082825260208201905092915050565b6000819050602082019050919050565b612de581612610565b82525050565b6000612df78383612ddc565b60208301905092915050565b6000602082019050919050565b6000612e1b82612db0565b612e258185612dbb565b9350612e3083612dcc565b8060005b83811015612e61578151612e488882612deb565b9750612e5383612e03565b925050600181019050612e34565b5085935050505092915050565b60006020820190508181036000830152612e888184612e10565b905092915050565b600082825260208201905092915050565b7f4f6e6c7920612073696e676c652063757272656e63792063616e20626520757360008201527f656420666f7220626f756e747900000000000000000000000000000000000000602082015250565b6000612efd602d83612e90565b9150612f0882612ea1565b604082019050919050565b60006020820190508181036000830152612f2c81612ef0565b9050919050565b7f57726f6e6720616d6f756e74206f7220746f6b656e2070726f7669646564206660008201527f6f7220626f756e74790000000000000000000000000000000000000000000000602082015250565b6000612f8f602983612e90565b9150612f9a82612f33565b604082019050919050565b60006020820190508181036000830152612fbe81612f82565b9050919050565b6000606082019050612fda6000830186612cbf565b612fe76020830185612cbf565b612ff460408301846126b3565b949350505050565b61300581612856565b811461301057600080fd5b50565b60008151905061302281612ffc565b92915050565b60006020828403121561303e5761303d61257a565b5b600061304c84828501613013565b91505092915050565b7f4661696c656420746f2073656e6420455243323020626f756e747920746f206360008201527f6f6e747261637420666f7220637573746f647900000000000000000000000000602082015250565b60006130b1603383612e90565b91506130bc82613055565b604082019050919050565b600060208201905081810360008301526130e0816130a4565b9050919050565b7f4e487b7100000000000000000000000000000000000000000000000000000000600052601160045260246000fd5b6000613121826125ba565b915061312c836125ba565b9250827fffffffffffffffffffffffffffffffffffffffffffffffffffffffffffffffff03821115613161576131606130e7565b5b828201905092915050565b600081519050919050565b600081905092915050565b60005b838110156131a0578082015181840152602081019050613185565b838111156131af576000848401525b50505050565b60006131c08261316c565b6131ca8185613177565b93506131da818560208601613182565b80840191505092915050565b60006131f282846131b5565b915081905092915050565b7f4f6666657220646f65736e2774206578697374206f7220796f75277265206e6f60008201527f742074686520656d706c6f796572000000000000000000000000000000000000602082015250565b6000613259602e83612e90565b9150613264826131fd565b604082019050919050565b600060208201905081810360008301526132888161324c565b9050919050565b7f4e487b7100000000000000000000000000000000000000000000000000000000600052603260045260246000fd5b7f4e6f7420656c696769626c6520666f7220636c61696d696e6720626f756e7479600082015250565b60006132f4602083612e90565b91506132ff826132be565b602082019050919050565b60006020820190508181036000830152613323816132e7565b9050919050565b7f596f7527766520616c726561647920636c61696d656400000000000000000000600082015250565b6000613360601683612e90565b915061336b8261332a565b602082019050919050565b6000602082019050818103600083015261338f81613353565b9050919050565b7f4e487b7100000000000000000000000000000000000000000000000000000000600052601260045260246000fd5b60006133d0826125ba565b91506133db836125ba565b9250826133eb576133ea613396565b5b828204905092915050565b600081905092915050565b50565b60006134116000836133f6565b915061341c82613401565b600082019050919050565b600061343282613404565b9150819050919050565b7f4661696c656420746f2073656e6420457468657220626f756e747920736c696360008201527f6520746f206170706c6963616e74000000000000000000000000000000000000602082015250565b6000613498602e83612e90565b91506134a38261343c565b604082019050919050565b600060208201905081810360008301526134c78161348b565b9050919050565b60006134d9826125ba565b91506134e4836125ba565b9250828210156134f7576134f66130e7565b5b828203905092915050565b60006040820190506135176000830185612cbf565b61352460208301846126b3565b9392505050565b7f4661696c656420746f2073656e6420455243323020626f756e747920736c696360008201527f6520746f206170706c6963616e74000000000000000000000000000000000000602082015250565b6000613587602e83612e90565b91506135928261352b565b604082019050919050565b600060208201905081810360008301526135b68161357a565b9050919050565b7f596f75206861766520616c7265616479206d61646520616e206170706c69636160008201527f74696f6e206f72206170706c69636174696f6e206973206e6f74206f70656e2060208201527f7965740000000000000000000000000000000000000000000000000000000000604082015250565b600061363f604383612e90565b915061364a826135bd565b606082019050919050565b6000602082019050818103600083015261366e81613632565b9050919050565b7f4661696c656420746f2073656e6420457468657220626f756e747920746f206560008201527f6d706c6f79657200000000000000000000000000000000000000000000000000602082015250565b60006136d1602783612e90565b91506136dc82613675565b604082019050919050565b60006020820190508181036000830152613700816136c4565b9050919050565b7f4661696c656420746f2073656e6420455243323020626f756e747920746f206560008201527f6d706c6f79657200000000000000000000000000000000000000000000000000602082015250565b6000613763602783612e90565b915061376e82613707565b604082019050919050565b6000602082019050818103600083015261379281613756565b9050919050565b60006137a4826125ba565b91507fffffffffffffffffffffffffffffffffffffffffffffffffffffffffffffffff8214156137d7576137d66130e7565b5b60018201905091905056fea2646970667358221220b929beb1d6a764dbb56b9c3422af2d66b7fb1d4e222b3472b2183635c1f5874f64736f6c634300080a0033",
  "linkReferences": {},
  "deployedLinkReferences": {}
}